:100000000C94DF000C9407010C9407010C94070179
:100010000C9407010C9407010C9407010C94070140
:100020000C9407010C9407010C9407010C94070130
:100030000C9407010C9407010C9407010C94070120
:100040000C94C0040C9407010C948E040C94680466
:100050000C9407010C9407010C9407010C94070100
:100060000C9407010C94070100407A10F35A00A089
:10007000724E18090010A5D4E80000E87648170071
:1000800000E40B54020000CA9A3B000000E1F505B1
:10009000000080969800000040420F000000A086FB
:1000A00001000000102700000000E803000000002D
:1000B0006400000000000A000000000001000000D1
:1000C00000002C76D888DC674F0823DFC1DFAE59EB
:1000D000E1B1B796E5E3E453C63AE651997696E87E
:1000E000E6C28426EB898C9B62ED407C6FFCEFBC02
:1000F0009C9F40F2BAA56FA5F490055A2AF75C932D
:100100006B6CF9676DC11BFCE0E40D47FEF520E662
:10011000B500D0ED902E0300943577050080841E45
:10012000080000204E0A000000C80C333333330FA0
:10013000986E12831141EF8D2114893BE65516CF3D
:10014000FEE6DB18D1844B381BF77C1D901DA4BB49
:10015000E424203284725E228100C9F124ECA1E5FE
:100160003D2700000000240027002A0000000000B6
:10017000250028002B000000000023002600290095
:10018000040404040404040402020202020203033D
:100190000303030301020408102040800102040845
:1001A00010200102040810200000000800020100D5
:1001B0000003040700000000000000000A051124ED
:1001C0001FBECFEFD8E0DEBFCDBF21E0ACE2B1E093
:1001D00001C01D92A03EB207E1F711E0A0E0B1E03E
:1001E000E2EFFAE102C005900D92AC32B107D9F707
:1001F00010E0CFEDD0E004C02197FE010E947F0BFC
:10020000CE3DD107C9F70E9449050C94770D0C9497
:100210000000AF92BF92CF92DF92EF92FF920F93C6
:100220001F93CF93DF936C017B018B01040F151F8C
:10023000EB015E01AE18BF08C017D10759F06991F4
:10024000D601ED91FC910190F081E02DC601099558
:10025000892B79F7C501DF91CF911F910F91FF9005
:10026000EF90DF90CF90BF90AF900895FC01538D39
:10027000448D252F30E0842F90E0821B930B541780
:1002800010F0CF96089501970895FC01918D828D0D
:10029000981761F0A28DAE0FBF2FB11D5D968C91A6
:1002A000928D9F5F9F73928F90E008958FEF9FEFE5
:1002B0000895FC01918D828D981731F0828DE80FA1
:1002C000F11D858D90E008958FEF9FEF0895FC015B
:1002D000918D228D892F90E0805C9F4F821B910928
:1002E0008F739927089585E391E00E94670121E0CB
:1002F000892B09F420E0822F089580E090E0892B7B
:1003000029F00E94730181110C9400000895FC01F2
:10031000A48DA80FB92FB11DA35ABF4F2C91848D66
:1003200090E001968F739927848FA689B7892C93C3
:10033000A089B1898C91837080648C93938D848D16
:10034000981306C00288F389E02D80818F7D808319
:100350000895EF92FF920F931F93CF93DF93EC01D9
:1003600081E0888F9B8D8C8D98131AC0E889F9895C
:10037000808185FF15C09FB7F894EE89FF8960835F
:10038000E889F98980818370806480839FBF81E0E0
:1003900090E0DF91CF911F910F91FF90EF90089522
:1003A000F62E0B8D10E00F5F1F4F0F731127E02EFD
:1003B0008C8D8E110CC00FB607FCFACFE889F98935
:1003C000808185FFF5CFCE010E948701F1CFEB8DB3
:1003D000EC0FFD2FF11DE35AFF4FF0829FB7F89409
:1003E0000B8FEA89FB8980818062CFCFCF93DF9327
:1003F000EC01888D8823B9F0AA89BB89E889F9893D
:100400008C9185FD03C0808186FD0DC00FB607FC71
:10041000F7CF8C9185FFF2CF808185FFEDCFCE01A4
:100420000E948701E9CFDF91CF910895833081F059
:1004300028F4813099F08230A9F008958730A9F02E
:100440008830C9F08430B1F4809180008F7D03C082
:10045000809180008F7780938000089584B58F7796
:1004600084BD089584B58F7DFBCF8091B0008F77D8
:100470008093B00008958091B0008F7DF9CF1F93D5
:10048000CF93DF93282F30E0F901E855FE4F849198
:10049000F901EC56FE4FD491F901E058FE4FC4919A
:1004A000CC23A9F0162F81110E941602EC2FF0E048
:1004B000EE0FFF1FE459FE4FA591B4918FB7F8944A
:1004C000EC91111108C0D095DE23DC938FBFDF9132
:1004D000CF911F910895DE2BF8CFCF93DF9390E05B
:1004E000FC01EC56FE4F249180589E4FFC018491F4
:1004F0008823D1F090E0880F991FFC01EE59FE4F40
:10050000A591B491FC01E459FE4FC591D4916111BC
:100510000EC09FB7F8948C91E22FE0958E238C93B8
:100520002881E223E8839FBFDF91CF9108958FB7A1
:10053000F894EC91E22BEC938FBFF6CF3FB7F89491
:100540008091310190913201A0913301B091340139
:1005500026B5A89B05C02F3F19F00196A11DB11D1E
:100560003FBFBA2FA92F982F8827BC01CD01620F5A
:10057000711D811D911D42E0660F771F881F991F15
:100580004A95D1F708958F929F92AF92BF92CF92E2
:10059000DF92EF92FF920E949E024B015C0184E683
:1005A000C82ED12CE12CF12C0E949E0268197909E9
:1005B0008A099B09683E734081059105A8F321E0F3
:1005C000C21AD108E108F10888EE880E83E0981E6F
:1005D000A11CB11CC114D104E104F10429F7FF905E
:1005E000EF90DF90CF90BF90AF909F908F90089545
:1005F0000F931F93CF93DF93082F162FD42FC8E0AC
:100600006D2F661F6627661F802F0E943F02DD0F39
:1006100061E0812F0E943F0260E0812F0E943F0233
:10062000C15071F7DF91CF911F910F9108958F9273
:100630009F92AF92BF92CF92DF92EF92FF920F9371
:100640001F93CF93DF93962E07E010E0B12CC82FB5
:10065000D0E0CE0188559E4F7C01FE01EC56FE4F46
:100660006F01C058DE4F61E0892D0E943F02F70103
:100670008491F601A490FE018490882061F181119B
:100680000E941602E82DF0E0EE0FFF1FEA58FE4F21
:10069000A591B4918C91A82231E009F430E0832F28
:1006A000002E01C0880F0A94EAF7B82A60E0892D6D
:1006B0000E943F0201501109B0F68B2DDF91CF91BE
:1006C0001F910F91FF90EF90DF90CF90BF90AF9070
:1006D0009F908F90089580E0E3CFFF920F931F9338
:1006E000CF93DF938C01EB0181E8F82E01301105E7
:1006F00011F0FF24F39461E08091DA010E946D0211
:100700004F2D6091D8018091DA010E94F8020130EA
:100710001105D9F460E08091DA010E946D026091C8
:10072000D8018091DA010E941703182F6091D80137
:100730008091DA010E941703912F99838883DF91BA
:10074000CF911F910F91FF90089518814981609179
:10075000D8018091DA010E94F802412F6091D801FE
:100760008091DA01DF91CF911F910F91FF900C944E
:10077000F8021F93CF93DF93C2EDD1E060E088854C
:100780000E946D026E8188850E941703182F6E816A
:1007900088850E941703912FBC0190E080E00E94A1
:1007A0003F09DF91CF911F9108950F931F93CF932E
:1007B000DF9300D0CDB7DEB71A82198202ED11E0C7
:1007C00060E0F80184810E943F020E94B903BE01EB
:1007D0006F5F7F4F81E090E00E946D0361E0F80160
:1007E00084810E943F0289819A8190689A838983DB
:1007F00060E0F80184810E943F020E94B903BE01BB
:100800006F5F7F4F90E080E00E946D030E94C30203
:1008100061E0F80184810E943F0289819A819F777B
:100820009A83898360E0F80184810E943F020E94DC
:10083000B903BE016F5F7F4F90E080E00E946D03BF
:100840000E94C30261E0F80184810E943F020F9080
:100850000F90DF91CF911F910F910895CF93DF9368
:10086000EC0188819981009711F00E94210C198276
:1008700018821D821C821B821A82DF91CF910895FB
:100880000F931F93CF93DF93EC0188819981009799
:1008900059F02A813B812617370730F081E0DF913C
:1008A000CF911F910F9108958B016F5F7F4F0E9431
:1008B000AA0C009759F0998388831B830A832C81A3
:1008C0003D81232B59F7FC011082E8CF80E0E7CF70
:1008D0001F920F920FB60F9211242F933F934F93B5
:1008E0005F936F937F938F939F93AF93BF93EF9398
:1008F000FF9385E391E00E948701FF91EF91BF9103
:10090000AF919F918F917F916F915F914F913F91A7
:100910002F910F900FBE0F901F9018951F920F925E
:100920000FB60F9211242F938F939F93EF93FF9302
:10093000E0914501F09146018081E0914B01F091F9
:100940004C0182FD1BC0908180914E018F5F8F739F
:1009500020914F01821741F0E0914E01F0E0EB5CF5
:10096000FE4F958F80934E01FF91EF919F918F9154
:100970002F910F900FBE0F901F9018958081F4CF8C
:100980001F920F920FB60F9211242F933F938F93C4
:100990009F93AF93BF9380912D0190912E01A091D1
:1009A0002F01B091300130912C0123E0230F2D371E
:1009B00058F50196A11DB11D20932C0180932D01A6
:1009C00090932E01A0932F01B093300180913101BB
:1009D00090913201A0913301B09134010196A11D93
:1009E000B11D8093310190933201A0933301B093F4
:1009F0003401BF91AF919F918F913F912F910F90B3
:100A00000FBE0F901F90189526E8230F0296A11D88
:100A1000B11DD2CFE5E3F1E01382128288EE93E0BC
:100A2000A0E0B0E084839583A683B7838AE091E059
:100A30009183808385EC90E09587848784EC90E0B7
:100A40009787868780EC90E0918B808B81EC90E09B
:100A5000938B828B82EC90E0958B848B86EC90E07C
:100A6000978B868B118E128E138E148EE2EDF1E031
:100A700082E090E09583848383E090E0978386838F
:100A800084E090E09187808780E190E0918380838B
:100A90000895CF93DF93CDB7DEB7A7970FB6F8943D
:100AA000DEBF0FBECDBF789484B5826084BD84B5AF
:100AB000816084BD85B5826085BD85B5816085BD59
:100AC00080916E00816080936E0010928100809111
:100AD0008100826080938100809181008160809399
:100AE0008100809180008160809380008091B100BE
:100AF00084608093B1008091B00081608093B000E9
:100B000080917A00846080937A0080917A0082607C
:100B100080937A0080917A00816080937A0080913E
:100B20007A00806880937A001092C100E0914501BC
:100B3000F091460182E08083E0914101F091420111
:100B40001082E0914301F09144018FEC8083109278
:100B50004D01E0914901F0914A0186E08083E091E6
:100B60004701F0914801808180618083E0914701D5
:100B7000F0914801808188608083E0914701F09185
:100B80004801808180688083E0914701F0914801AD
:100B900080818F7D808361E08091D6010E946D020B
:100BA00061E08091D8010E946D0260E08091DA01DD
:100BB0000E946D0261E08091D6010E943F0260E0D8
:100BC0008091D8010E943F0261E08091DA010E9489
:100BD0003F0281E090E09093D5018093D4010E9480
:100BE000D50380E0E82E80E0F82E60E08091D60109
:100BF0000E943F028091D4019091D50110E000E065
:100C0000019729F40E94B9030E94500B8B0161E007
:100C10008091D6010E943F02B80190E080E00E94DE
:100C20003F0917FF08C09B01AC0160E070E080E065
:100C300097E40E94710A20E030E040E05CE30E940B
:100C40007C0920E030E040E151E40E947C0920E092
:100C500030E040EA50E40E94DE0A1BA21AA21DA264
:100C60001CA21FA21EA220E030E040E052E40E943D
:100C7000720A8E010F5F1F4F22E044E00E94EA06D5
:100C80006C01009779F0FC0101900020E9F73197A1
:100C90008F01081B190BB801CE0182960E944004F7
:100CA000811173C0CE0182960E942E041A8219828D
:100CB0001C821B821E821D826DE070E0CE010196B7
:100CC0000E944004811169C0CE0101960E942E0449
:100CD000CAA0DBA0C114D10409F46AC00EA11FA1EF
:100CE00001151105B9F08D819E81080F191FB801FA
:100CF000CE0101960E944004882309F459C029813D
:100D00003A818D819E81B601820F931F0E94700DE2
:100D10001E830D830D811E810F5F1F4FB801CE0111
:100D200001960E944004811148C0CE0101960E94A4
:100D30002E044D815E8169817A8185E391E00E9474
:100D4000090142E050E068E271E085E391E00E9431
:100D5000090189819A81009711F00E94210C8AA1D2
:100D60009BA1009711F00E94210C0E94D5030E94C4
:100D7000D503E114F10409F438CF0E9473018823EC
:100D800009F433CF0E94000030CF1FA30EA3B60199
:100D90008AA19BA10E94700D89CF8DE090E09E8377
:100DA0008D8368E171E089819A810E94700D90CFF6
:100DB000CE0101960E942E04ADCF29813A818D810A
:100DC0009E8166E271E0820F931F0E94700D1E8368
:100DD0000D83AFCFEF920F931F93CF93DF93E80173
:100DE00034E047FD34E1042E000C550B57FF03C0DF
:100DF000519541955109E32E022F242FAE010E94F7
:100E00000807CE01DF91CF911F910F91EF900895C8
:100E1000A9E0B0E0EEE0F7E00C94400A6A01F22E9F
:100E2000B02E102FFBE3AF2EA01608F41BE31F5FBC
:100E3000012F27E0AE014F5F5F4F0E946708BC01A2
:100E40008981982F9970913009F43FC09BE2E1FCB1
:100E500004C09E2D9170E0FC3AC05E2D5071E82FC9
:100E6000E87083FF46C084E0911101C083E0EF2D5C
:100E7000E81B8F1508F0E0E0D6018E2F20E2552305
:100E800051F1992329F0D6019C93C60101966C017A
:100E900096012D5F3F4FE2FE24C08EE4D6018C9375
:100EA00091E411969C93119712968C93D9018E2FF1
:100EB00090E281111BC0E20FF32FF11D10828EEF23
:100EC0009FEF2996ECE00C945C0A9DE2C6CF90E27D
:100ED000C4CF2D9381508111FCCFCE0ED11CE0E008
:100EE000D0CF8EE6D6018C9391E6DBCF9D938150D7
:100EF000E0CF482F447082FF3DC084E0911101C0D3
:100F000083E08F1510F4EF2DE81BD6018E2F20E221
:100F1000552309F1992329F0D6019C93C601019626
:100F20006C0196012D5F3F4FE2FE1BC089E4D601A4
:100F30008C938EE411968C93119786E412968C9381
:100F4000D9018E2F90E2882309F4B5CF9D9381506B
:100F5000FACF2D9381508111FCCFCE0ED11CE0E051
:100F6000D9CF89E6D6018C938EE611968C93119792
:100F700086E6E4CF9B0177FF02C030E020E0A1E0ED
:100F8000B0E0911102C0B0E0A0E0F9013196AE0FDF
:100F9000BF1F8B2C912CBB2009F461C05401EFEFD3
:100FA000AE1ABE0AAA0DBB1DFA161B0619F014F0E4
:100FB0004F2D4A1B511188C0E3FC59C07601A42F64
:100FC000B0E2A1114FC0C40ED11C992309F45BC03B
:100FD00040E0D6011196F60190836D01552309F486
:100FE00048C0012F060F9A81582F507184FF03C00B
:100FF000913309F4015010160CF047C0093008F085
:1010000008E0EEE2FE2E5B01A01AB1088501919482
:10101000819491082F3F320729F4D601FC92F60102
:1010200031966F016217730794F1021713077CF56D
:10103000DB01A21BB30BAA24A394B12CAC0EBD1EE2
:10104000AA0DBB1D11968C9121503109D601119624
:1010500028153905F4F0F60180836D01DBCFB12C42
:10106000A12CA0CFF701B1937F01A150AACF91117C
:10107000B0CFD601942F50E302C05D9391509111EF
:10108000FCCFC40ED11C40E0ACCF01E0BACF80E36E
:10109000DBCF6217730731F4963388F4953311F47C
:1010A000552369F0F6018083FD01842F90E28111C0
:1010B00008C0A40FB11D1C9290E080E002CF81E334
:1010C000F1CF91938150F3CF911183CF8ACF283004
:1010D00008F027E03327DA01990F311D87FD916071
:1010E00000966105710539F432602E5F3D9330E35F
:1010F0002A95E1F708959F3F30F08038710561052A
:1011000009F03C5F3C5F3D93913008F08068911D91
:10111000DF93CF931F930F93FF92EF92192F987F36
:101120009695E92F96959695E90FFF27EE53FF4F79
:1011300099273327EE24FF24A701E701059008949F
:10114000079428F4360FE71EF81E491F511D660F3D
:10115000771F881F991F0694A1F70590079428F41C
:10116000E70EF81E491F561FC11D770F881F991FD4
:10117000661F0694A1F70590079428F4F80E491FFE
:10118000561FC71FD11D880F991F661F771F069412
:10119000A1F70590079420F4490F561FC71FD81FC9
:1011A000990F661F771F881F0694A9F784911095E1
:1011B000177041F0D695C79557954795F794E794E2
:1011C0001A95C1F7E8E6F0E068941590159135910D
:1011D0006591959105907FE27395E118F10A430BB3
:1011E000560BC90BD009C0F7E10CF11E431F561F67
:1011F000C91FD01D7EF4703311F48A95E6CFE894B0
:10120000015030F0080F0AF40027021708F4202FCD
:101210002395022F7A3328F079E37D932A95E9F715
:1012200010C07D932A9589F6069497956795379512
:1012300017951794E118F10A430B560BC90BD00907
:1012400098F023957E9173957A3308F070E37C9340
:101250002013B8F77E9170617D9330F0839571E330
:101260007D9370E32A95E1F71124EF90FF900F91A1
:101270001F91CF91DF91992787FD90950895E8946C
:1012800009C097FB3EF490958095709561957F4FCE
:101290008F4F9F4F9923A9F0F92F96E9BB2793957C
:1012A000F695879577956795B795F111F8CFFAF48C
:1012B000BB0F11F460FF1BC06F5F7F4F8F4F9F4FBD
:1012C00016C0882311F096E911C0772321F09EE81B
:1012D000872F762F05C0662371F096E8862F70E081
:1012E00060E02AF09A95660F771F881FDAF7880F5B
:1012F0009695879597F908950E948F090C94000A96
:101300000E94F20938F00E94F90920F0952311F0AB
:101310000C94E9090C94EF0911240C94340A0E94EE
:10132000110A70F3959FC1F3950F50E0551F629F0E
:10133000F001729FBB27F00DB11D639FAA27F00D2E
:10134000B11DAA1F649F6627B00DA11D661F829F55
:101350002227B00DA11D621F739FB00DA11D621F3A
:10136000839FA00D611D221F749F3327A00D611D57
:10137000231F849F600D211D822F762F6A2F112439
:101380009F5750409AF0F1F088234AF0EE0FFF1F6C
:10139000BB1F661F771F881F91505040A9F79E3FC3
:1013A000510580F00C94E9090C94340A5F3FE4F392
:1013B000983ED4F3869577956795B795F795E79519
:1013C0009F5FC1F7FE2B880F911D9695879597F922
:1013D000089597F99F6780E870E060E008959FEFB7
:1013E00080EC089500240A941616170618060906BC
:1013F000089500240A94121613061406050608958B
:10140000092E0394000C11F4882352F0BB0F40F412
:10141000BF2B11F460FF04C06F5F7F4F8F4F9F4F52
:10142000089557FD9058440F551F59F05F3F71F0D4
:101430004795880F97FB991F61F09F3F79F087953B
:101440000895121613061406551FF2CF4695F1DFC4
:1014500008C0161617061806991FF1CF8695710554
:10146000610508940895E894BB2766277727CB0188
:1014700097F908952F923F924F925F926F927F92C9
:101480008F929F92AF92BF92CF92DF92EF92FF9294
:101490000F931F93CF93DF93CDB7DEB7CA1BDB0B40
:1014A0000FB6F894DEBF0FBECDBF09942A883988E5
:1014B00048885F846E847D848C849B84AA84B984EC
:1014C000C884DF80EE80FD800C811B81AA81B981F8
:1014D000CE0FD11D0FB6F894DEBF0FBECDBFED010C
:1014E00008955058BB27AA270E94890A0C94000A25
:1014F0000E94F20938F00E94F90920F039F49F3F68
:1015000019F426F40C94EF090EF4E095E7FB0C9423
:10151000E909E92F0E94110A58F3BA176207730705
:101520008407950720F079F4A6F50C94330A0EF49D
:10153000E0950B2EBA2FA02D0B01B90190010C01E3
:10154000CA01A0011124FF27591B99F0593F50F4FB
:10155000503E68F11A16F040A22F232F342F442753
:10156000585FF3CF469537952795A795F04053954B
:10157000C9F77EF41F16BA0B620B730B840BBAF01B
:101580009150A1F0FF0FBB1F661F771F881FC2F786
:101590000EC0BA0F621F731F841F48F4879577959A
:1015A0006795B795F7959E3F08F0B0CF9395880F54
:1015B00008F09927EE0F9795879508950E94F20AF3
:1015C0000C94000A0E94F90958F00E94F20940F0B8
:1015D00029F45F3F29F00C94E90951110C94340A65
:1015E0000C94EF090E94110A68F39923B1F3552373
:1015F00091F3951B550BBB27AA2762177307840726
:1016000038F09F5F5F4F220F331F441FAA1FA9F3BB
:1016100035D00E2E3AF0E0E832D091505040E695A9
:10162000001CCAF72BD0FE2F29D0660F771F881F0A
:10163000BB1F261737074807AB07B0E809F0BB0BFD
:10164000802DBF01FF2793585F4F3AF09E3F510511
:1016500078F00C94E9090C94340A5F3FE4F3983E67
:10166000D4F3869577956795B795F7959F5FC9F7FA
:10167000880F911D9695879597F90895E1E0660F7B
:10168000771F881FBB1F621773078407BA0720F0F4
:10169000621B730B840BBA0BEE1F88F7E09508955D
:1016A0000E94190A88F09F5798F0B92F9927B751CF
:1016B000B0F0E1F0660F771F881F991F1AF0BA95F6
:1016C000C9F714C0B13091F00E94330AB1E0089517
:1016D0000C94330A672F782F8827B85F39F0B93F09
:1016E000CCF3869577956795B395D9F73EF49095A9
:1016F0008095709561957F4F8F4F9F4F0895EE0FA6
:10170000FF1F0590F491E02D09940F931F93CF9341
:10171000DF938230910510F482E090E0E091DE01E9
:10172000F091DF0130E020E0B0E0A0E0309799F4E4
:101730002115310509F44AC0281B390B2430310525
:10174000D8F58A819B816115710589F1FB0193832D
:101750008283FE0111C040815181028113814817AB
:101760005907E0F04817590799F4109761F012965D
:101770000C93129713961C933296CF01DF91CF9161
:101780001F910F9108950093DE011093DF01F4CFB4
:101790002115310551F04217530738F0A901DB013B
:1017A0009A01BD01DF01F801C1CFEF01F9CF90939C
:1017B000DF018093DE01CDCFFE01E20FF31F8193A5
:1017C00091932250310939832883D7CF2091DC01AE
:1017D0003091DD01232B41F420910201309103016E
:1017E0003093DD012093DC01209100013091010153
:1017F0002115310541F42DB73EB7409104015091B8
:101800000501241B350BE091DC01F091DD01E217AD
:10181000F307A0F42E1B3F0B2817390778F0AC0113
:101820004E5F5F4F2417350748F04E0F5F1F5093F0
:10183000DD014093DC01819391939FCFF0E0E0E0E4
:101840009CCFCF93DF930097E9F0FC01329713828E
:101850001282A091DE01B091DF01ED0130E020E0C5
:101860001097A1F420813181820F931F2091DC0118
:101870003091DD012817390709F061C0F093DD01CF
:10188000E093DC01DF91CF910895EA01CE17DF07E5
:10189000E8F54A815B819E0141155105B1F7E901E7
:1018A000FB83EA8349915991C40FD51FEC17FD07BB
:1018B00061F4808191810296840F951FE9019983DB
:1018C0008883828193819B838A83F0E0E0E0129693
:1018D0008D919C9113970097B9F52D913C9111979B
:1018E000CD010296820F931F2091DC013091DD0122
:1018F0002817390739F6309751F51092DF01109209
:10190000DE01B093DD01A093DC01BCCFD383C283A1
:1019100040815181840F951FC817D90761F44E5F2C
:101920005F4F88819981480F591F518340838A8175
:101930009B81938382832115310509F0B0CFF09309
:10194000DF01E093DE019ECFFD01DC01C0CF1382F9
:101950001282D7CFB0E0A0E0E0EBFCE00C943C0AB0
:101960008C01009751F4CB010E94850B8C01C801BA
:10197000CDB7DEB7E0E10C94580AFC01E60FF71F83
:101980009C0122503109E217F30708F49DC0D901E8
:10199000CD91DC911197C617D70798F0C530D105C6
:1019A00030F3CE0104978617970708F3C61BD70BB1
:1019B0002297C193D1936D937C93CF010E94210C08
:1019C000D6CF5B01AC1ABD0A4C018C0E9D1EA091B6
:1019D000DE01B091DF01512C412CF12CE12C10974C
:1019E00031F58091DC019091DD018815990509F0B0
:1019F0005CC04616570608F058C0809100019091CF
:101A00000101009741F48DB79EB7409104015091B8
:101A10000501841B950BE817F90708F055C0F093F2
:101A2000DD01E093DC01F90171836083A0CF8D912A
:101A30009C91119712966C90129713967C90139725
:101A4000A815B90559F56C0142E0C40ED11CCA14A1
:101A5000DB0420F1AC014A195B09DA0112961597F3
:101A600080F06282738251834083D9016D937C93AD
:101A7000E114F10471F0D7011396FC93EE931297E1
:101A800076CF22968C0F9D1FF90191838083F301FD
:101A9000EFCFF093DF01E093DE0169CF48165906DE
:101AA00008F42C017D01D3019ACFCB010E94850B54
:101AB0007C01009749F0AE01B8010E94670DC80192
:101AC0000E94210C870153CF10E000E050CFFB01B2
:101AD000DC0102C001900D9241505040D8F70895AA
:101AE000FB01DC0101900D920020E1F70895F894CC
:021AF000FFCF26
:101AF2000000E001800000000000A9010901360198
:101B0200F60167014501590154656D706572617492
:0C1B12007572653A200043000D0A0000C7
:00000001FF
